:020000040800F2
:10000000B0140020A93D00087D3D00087F3D000898
:10001000813D0008833D0008853D00080000000088
:10002000000000000000000000000000CF260008D3
:10003000873D0008000000008926000821260008EE
:10004000ED3D0008F13D0008F53D0008F93D0008D0
:10005000FD3D0008013E0008053E0008093E00087D
:100060000D3E0008113E0008153E0008193E00082C
:100070001D3E0008213E0008253E0008293E0008DC
:100080002D3E0008313E0008353E0008393E00088C
:100090003D3E0008413E0008453E0008493E00083C
:1000A0004D3E0008513E0008553E0008593E0008EC
:1000B0005D3E0008893D0008613E0008653E00087D
:1000C000693E00086D3E0008713E0008753E00085C
:1000D000793E00087D3E0008813E0008853E00080C
:1000E000893E00088D3E0008913E00082DE9F14F41
:1000F000B0B0924604910DF142013A9A2B91994683
:100100004A7000200AE01AF8011B0498309A9047C0
:100110000028049000F0B6860D98401C0D909AF8C7
:10012000000050B12528EED100210022079108924D
:1001300009910A920B910C9204E00D9800F0A4BE74
:1001400041F001011AF8010F2028F9D023280CD022
:100150002B2804D02D2805D0302809D00BE041F001
:100160000201EFE741F00401ECE741F00801E9E7A3
:1001700041F01001E6E72A280FD1D9F8002052F803
:10018000040BC9F8002000280F9003D540420F90BF
:1001900041F004010AF1010A14E00F92DFF8283857
:1001A0000AE00F98984205DA00EB800402EB440263
:1001B000303A0F920AF1010A9AF80020A2F13000B9
:1001C0000A28EED39AF800002E2803D04FF0FF3211
:1001D0000E9229E01AF8010F2A2809D1D9F8000057
:1001E00050F8042BC9F800000E920AF1010A1BE036
:1001F0002D280CBF0AF1010A002000220E92DFF820
:10020000C8470BE040B90E9AA24205DA02EB82051C
:1002100003EB4503303B0E930AF1010A9AF80030D4
:10022000A3F130020A2AEDD3ADF84010DFF89C07A5
:10023000784400F5F3609AF8001000F057FF08B119
:100240001AF8010B8DF842009DF84200682805D18C
:100250009AF8000068280CD1622106E06C2804BFDF
:100260009AF800006C2804D171218DF842100AF12F
:10027000010A12A806901AF801BBBBF125012CD087
:100280001C3900F0D081091F022940F2CC811339BA
:1002900000F02385093900F0C681891E00F0B88579
:1002A000491E00F06585491E022940F2BC81091FE4
:1002B00000F05E85491F00F02881491E00F00D8581
:1002C000491E00F0D080C91E0DD0891E00F00585A2
:1002D000C91E00F0028500F0A6BD25238DF8483028
:1002E000012100F0ABBDD9F8000050F8044BC9F86B
:1002F0000000002C059440F0A3802B99487800283A
:1003000000F099804FF0FF340FF6843000F0FEFECD
:10031000201A40F0B78500F092BD6D1E40F0A9850F
:100320003096079D12AF75B1309E17F8012B02A9C8
:10033000304600F073FE002801D46D1EF5D1002870
:10034000309640F09F850A9D3020002D8DF80400E6
:100350000CDD309E012301AA02A9304600F06EFE9A
:10036000002840F08F856D1EF4D13096059F089DC2
:1003700075B1309E17F8012B02A9304600F04EFEF1
:10038000002801D46D1EF5D10028309640F07A8502
:100390000B9D3020002D8DF804000CDD309E0123D4
:1003A00001AA02A9304600F049FE002840F06A8503
:1003B0006D1EF4D1309605980899099D471875B1BE
:1003C000309E17F8012B02A9304600F027FE0028C6
:1003D00001D46D1EF5D10028309640F053850C9D58
:1003E0003020002D8DF804000CDD309E012301AA81
:1003F00002A9304600F022FE002840F043856D1E21
:10040000F4D130969DF8400041077FF588AE20205A
:10041000002C8DF804007FF782AE309D012301AAE5
:1004200002A9284600F00AFE002840F02B85641E31
:10043000F4D1309573E60FF66440059000F0FFBCF0
:100440000E9D002D04D5204600F080FE044607E0F6
:100450002A46204600F096FE002814BF041B2C46B6
:10046000089400F0ECBCD9F8001051F8040BC9F85E
:10047000001020F00004002121F0FF3512ABCDE97F
:1004800002450593DDE9022306993C2413B90AB914
:100490000E9898B102F00F053035641EEEB23A2E78
:1004A000A8BF2735120942EA03721B090D5508BF80
:1004B000002A03D005980D19A842EBD3081905901E
:1004C000C4F13C020E98089282420ADABDF840104C
:1004D000821A4FF6EF7001400A92ADF8401000F01A
:1004E000AEBC002840F1AB849DF8400000F0140041
:1004F000102840F0A4840F9B07990A985B1A1B1AD6
:100500009A1A002A40F39B84E5E32B99487820B19E
:100510004FF0FF340FF65430F8E69DF842006228A1
:1005200061D0682817D06A283FD06C2806D071287F
:1005300047D074282CD07A281DD064E0D9F8001058
:1005400051F8040BC9F80010002868D14FF0FF34AF
:100550000FF63030DAE6D9F8001051F8040BC9F87C
:10056000001020B94FF0FF340FF61830CEE60D9989
:10057000018000F064BCD9F8001051F8040BC9F8F0
:10058000001000284BD14FF0FF340FF6F820BDE6E5
:10059000D9F8001051F8040BC9F8001000283ED11A
:1005A0004FF0FF340FF6DC20B0E6D9F8001051F818
:1005B000040BC9F8001080B94FF0FF340FF6C420C7
:1005C000A4E6D9F8001051F8040BC9F8001020B9BE
:1005D0004FF0FF340FF6AC2098E60D9AD317C0E920
:1005E000002300F02CBCD9F8001051F8040BC9F816
:1005F000001020B94FF0FF340FF6882086E60D99E1
:10060000017000F01CBCD9F8001051F8040BC9F8B7
:10061000001020B94FF0FF340FF6682076E60D99F0
:10062000016000F00CBCD9F80020D21D22F00702B6
:10063000C9F80020D2E900010832C9F80020CDE94C
:100640000201C80F02D007982D210AE0BDF8400032
:10065000810702D507982B2103E0C00705D507982D
:10066000202112AA1154401C0790DDE902230799AA
:1006700012A8CDE92C2308444BF0200161290590F4
:1006800021AC0BD00E99002902D506210E9105E070
:1006900001BF4BF02001672901220E92DDE9022300
:1006A00059004915491C0DD11A030BD0ABF1610556
:1006B00003211A2D089102D20FF6E41110E00FF673
:1006C000E4110DE059004915491C0DD11A030BD155
:1006D000ABF1610503211A2D089119D30FF6CC1146
:1006E000032200F07BFDAAE3DDE90201CDE92E0142
:1006F000DDE92E2323F00047B7F5801F22F0000626
:100700000DD20022002F08BF002E009203D116E068
:100710000FF69411E4E76A4600F06CFD0FE0DFF895
:10072000DC08DFF8DC1800EB17500090DDE92E2321
:100730004FF0FF301940DFF8CC7810403943CDE955
:1007400002014BF0200061280DD105983021017085
:10075000821CBBF1610F05920CBF782158214170BA
:100760000798801C0790DDE9020120F0000231F0BB
:10077000004308BF002A02D10026002568E14BF0A3
:100780002008B8F1610F40F0B4800E98002847BFF0
:1007900021210191401C0190019FDDE92C017F1C6A
:1007A00000220023DDE9024500F05CFD00998DF890
:1007B000842038BF85F00045091F002F00910DF1FE
:1007C000850653DD204629460022002300F062FD05
:1007D0004CD24800400D00F11C0212D0002A10DD5E
:1007E00040F2FF739A4206DBDFF81C1805F0004068
:1007F0000143002011E06FF31E5141EA02512046EF
:100800000BE024F0000035F0004108BF00280FBFC6
:1008100029461C22294600F055FD04460D4600F0ED
:10082000EFFDFF1F002F804609DD00F007FE0246A6
:100830000B462046294600F013FE04460D46F01DE7
:100840000721B8F1000F0CDD491E5EBF08F00F0252
:1008500000F8012D4FEA2818F3D502E0002200F835
:10086000012D491EFAD5C61D002FABDC0DF1850008
:10087000361A01988642D8BF304600280DF185040B
:1008800030D4B04206DA0DF185010A5C082AA8BF0F
:100890000F2100DA0021024621AB134400E0401E84
:1008A00013F80159521E8D42F9D00F2904D10DF1D0
:1008B00085018B5C5B1C8B54002A04D50099091DB3
:1008C00021AC401C0091411E0CD46218ABF13A06D9
:1008D00013783033DDB23A2DA8BFF318491E02F861
:1008E0000139F5D50E99002940F1B080421E0E92D3
:1008F000ACE00099DFF8142747F29750414391FB91
:10090000F2F2DDE92C45009225F00045D2F1070214
:1009100004DD2046294600F04EFB0BE05242002049
:10092000DFF8EC1600F047FB02460B46204629464E
:1009300000F008FE0446B8F1660F0E9806BF009F4F
:100940000A3706273F18142FC8BF142730200D463A
:100950008DF884000DF18506002F39DD20462946EB
:1009600000F014FF01460A4606F1080304200A2697
:10097000B2FBF6F606EB860EA2EB4E02303203F81F
:10098000012C0A22B6FBF2F202EB820EA6EB4E0617
:100990003036401E03F8026DE9D1083F002F03F105
:1009A0000806D9DD084600F005FF02460B46204642
:1009B000294600F055FD0022DFF8583600F008FF08
:1009C00004460D46CAE700BFCBCCCC0C183400005F
:1009D0000DF18500361A0DF1850404E00098401EE3
:1009E000761E0090641C20783028F7D0B8F1660F8E
:1009F00002D10099491C04E0B8F1650F0CBF012138
:100A000000210E9808188642B8BF701E00281DD419
:100A1000B04204DA215C3429C8BF392100DC30211E
:100A20000246631E9D1800E0401E15F80169521E23
:100A30008E42F9D0392902D1A15C491CA154002A67
:100A400004D50099491C1C46401C00910646009D97
:100A500000F090FF406A0778DDF8388030B2002857
:100A600002DC01260FF248644BF02000662808BF24
:100A70006D1C16D0672846D128B210F1040F48DB50
:100A8000404546DA9DF840006D1C010703D430B2A2
:100A90004045B8BF804628B2B8EB000848BF4FF0C9
:100AA00000080FFA85FBBBF1000F00F3B580089832
:100AB000411C0891302205990A54B8F1000F03DC5B
:100AC0009DF84000010704D50898411C089105993C
:100AD0000F5418EB0B0FB8BFC8F100052DB26842D8
:100AE0000B90A84432B29045B8BF4646059B089883
:100AF00036B2099632462146184400F06FFBA8EB47
:100B000006000C90D2E0BBF1610F17D14FF0700BD3
:100B100019E030B2404504DA9DF840100A0758BF8A
:100B20008046B8F1010848BF4FF00008BBF1670FDD
:100B300014BF4FF0450B4FF0650B04E0BBF1410FC4
:100B400008BF4FF0500B0898411C0891B8F1000FF6
:100B5000059914F8012B0A5403DC9DF840000107A5
:100B60001AD50898411C0891B8F1000F05990F5447
:100B700012DD761E30B280450598089BB8BF464608
:100B800032B22146184400F029FB089936B2711898
:100B90000891A8EB06000B9005980899084429B223
:100BA000002980F800B003D42B224270821C04E09C
:100BB0002D2242700D46821C6D4200212CAB28462E
:100BC0000AE004460A2094FBF0F000EB8005A4EB59
:100BD000450403F8014B491C00B20028F1DC01294F
:100BE00006DC4BF02000652804BF302002F8010B22
:100BF00000292CAB08D1302002F8010B06E0491E79
:100C0000585C303002F8010B0029F8DC059908988F
:100C10000844121A099249E030B229B288421CDA1B
:100C20000598089B32B22146184400F0D7FA08997B
:100C300036B27118ABEB0606B8F1000F08910B96AF
:100C400003DC9DF84000020704D505984754099934
:100C5000491C0991CDF8308028E00598089B2AB2FC
:100C60002146184400F0BAFA0898761B5844B8F1A7
:100C7000000F089003DC9DF840100A0703D5411CC3
:100C8000089105990F5430B280450598089BB8BF6C
:100C9000464632B204EB0B01184400F09FFA089864
:100CA00036B230180890A8EB06000B909DF8400073
:100CB00000F01400102840F0C280079A08990B98A1
:100CC0008A18099982180C988A1882180F988242FB
:100CD00080F2B580821A0A92B1E09DF84200622843
:100CE00008D068280ED06A2814D06C281FD071282C
:100CF00010D01CE0D9F8001051F8040BC9F800100E
:100D0000C0B21AE0D9F8001051F8040BC9F800106D
:100D100080B212E0D9F80020D21D22F00702C9F8F3
:100D20000020D2E900010832C9F8002006E0D9F815
:100D3000001051F8040BC9F800100021CDE90201A0
:100D40009DF8400001075AD5DDE90223002B08BFBA
:100D5000002A54D04BF02000782850D1079812A9CF
:100D600030220A54401C431C079301F800B046E0AF
:100D70009DF84200622808D068280ED06A2814D056
:100D80006C281FD0712810D01CE0D9F8001051F841
:100D9000040BC9F8001040B21AE0D9F8001051F85D
:100DA000040BC9F8001000B212E0D9F80020D21DDF
:100DB00022F00702C9F80020D2E900010832C9F880
:100DC000002006E0D9F8001051F8040BC9F8001013
:100DD000C117CDE90201002902D507982D210AE0AB
:100DE000BDF84000810702D507982B2103E0C0071A
:100DF00005D50798202112AA1154401C079012A86B
:100E000007990144059102A8594600F04FF816E0F1
:100E100001200790D9F8000050F8041BC9F8000021
:100E20008DF848100BE025210122BBF1000F8DF851
:100E30004810079203D08DF849B0022107910F9A0C
:100E400007980A990C9C121A0898521A0B99121AB0
:100E50000998521A121A9DF84000141B41073FF5D9
:100E600060AA2020002C8DF804007FF75AAA309E3B
:100E70002546012301AA02A9304600F0DFF8002828
:100E80003FF44BAA4FF0FF3031B0BDE8F08F0000C7
:100E90007072696E74665F733A20626164202573B4
:100EA00020617267756D656E740000002DE9FC436A
:100EB00007466F293E6908BF082405D041F020008D
:100EC000782814BF0A2410243C25D7E9002364297C
:100ED00018BF69299046994605D1002B03D5D8F152
:100EE000000869EB4909B9F1000F08BFB8F1000F1C
:100EF0000CD1386B50B9082C39D197F8380001075C
:100F000035D530203B2586F83B0030E08DF80010C9
:100F1000404649462246E31700F030FD3032D0B259
:100F20006D1E3A28019504DB9DF80000A0F15101E7
:100F30008A187255404649462246E31700F01EFDC6
:100F400080465FEA010908BFB8F1000F03D0F868D6
:100F500071198842DCD3082C09D197F838000107B1
:100F600005D5705D302802D06D1E30207055C5F15A
:100F70003C02BA617119F960386B824208DA821A50
:100F80003A624FF6EF70398F01403987BDE8F3833D
:100F900000280ED597F8380000F01400102808D16A
:100FA0007B6B7969386A5B1A1B1A9A1A002AC8BFC8
:100FB0003A62BDE8F3832DE9D04306460F46144656
:100FC0004FF00008DFF8509012E0E00707D54246E6
:100FD0004B463046394600F0FBFB06460F4640467E
:100FE000494642464B4600F0F3FB64108046894672
:100FF000002CEAD130463946BDE8D08302FCFFFF21
:10100000FFFF0F800000E03F0000F07FA08601009E
:101010000000F03F84D797410000244010B50346FC
:101020000C461146A0689847A06020B1E06A401CB9
:10103000E062002010BD4FF0FF3010BDF8B505464E
:101040000E4617461C4600205CB117F8011BB0681D
:10105000A847B06030B1F06A401CF0620020641E06
:10106000F3D1F2BD4FF0FF30F2BD00007072696E37
:1010700074665F733A20256E20646973616C6C6FCF
:10108000776564007072696E74663A2062616420EC
:10109000256E20617267756D656E7400000000003A
:1010A0006E616E004E414E00696E6600494E46000C
:1010B000300030B4002513E050F8042BD30744BFB0
:1010C000A9F101039A18091F042942F8045BFAD216
:1010D00013468C0744BF15809B1CC90748BF1D7071
:1010E00050F8041B0029E7D130BC7047C9B2027820
:1010F0008A421AB11CBF10F8012FF9E718BF00206F
:1011000070470268531C03601170704780B500B9C6
:1011100006A005490B681BB122220021984701E077
:1011200000F044FD222002BDAC100020636F6E73FE
:10113000747261696E742068616E646C65723A20C5
:10114000626164206D6573736167650000F101037E
:10115000810704D010F8011B820781B1FAD102681F
:10116000A2F10131914311F0803104BF50F8042FF6
:10117000F6E709BAB1FA81F100EBD100401CC01AC0
:1011800070472E00C9B2830706D0521E22D310F832
:10119000013B9942F7D11FE0083A13D302F1040250
:1011A00041EA012141EA014150F8043B121F21BFED
:1011B0004B40A3F1013C2CEA030C1CF0803FF3D020
:1011C000C9B2001F083210F8013B521E28BF91EA35
:1011D000030FF8D818BF0120401E70474AB1000025
:1011E00011F8013B521E00F8013B1CBF11F8013BF6
:1011F000F8E7704710B5144600F002F8226010BD01
:10120000C1F30A5343B14A0012F5001F28D2A3F2DA
:10121000FE32A1EB0251704750EA410C20D001F0A0
:10122000004C31EA0C01B1FA81F204BFB0FA80F34C
:10123000D2180B3AB2F120032CBF00FA03F191400F
:1012400041EA0C013EBFC2F1200C20FA0CF3194315
:101250009040524240F2FD33D21A01EB03517047E5
:10126000002270474FF4001C1CEB410F94BF1CEB95
:10127000430F09E041EA030C50EA4C0C52EA0C0C13
:1012800003D2994208BF9042704714BF8B428242FA
:10129000704700004FF4001C1CEB410F94BF1CEB87
:1012A000430F09E041EA030C50EA4C0C52EA0C0CE3
:1012B00003D28B4208BF8242704714BF99429042CA
:1012C00070470000124254D440F2FF7C1CEA1153D4
:1012D0000FD0634531D09B1863453CBF01EB0251F1
:1012E000704701F0004141EA0C510020AFF300804B
:1012F000704750EA410320D001F0004C91EA0C0104
:101300001CD0B1FA81F30B3B9A420DD9D21A994005
:1013100051EA0C01C3F1200C20FA0CFC6144984006
:10132000531C40F2FF7CD7E7914041EA0C01C2F127
:10133000200C20FA0CF3194390407047B0FA80F368
:101340001533202BE0D3202AEED3203A203B9A42BB
:1013500009D9D21A00FA03F141EA0C010020531C0A
:1013600040F2FF7CB8E700FA02F141EA0C010020EC
:101370007047524240F2FF7C1CEA11530DD0634586
:10138000DBD0B2EB030C3CBFA1EB025170470CF178
:10139000010221EA035141F4801150EA410CCCD002
:1013A00001F0004C352A27DC30B481EA0C01B2F19F
:1013B000200309DAC2F12003044601FA03F5D04004
:1013C0002843D1409C400CE0C3F12002450020FAA4
:1013D00003F418BF44F0010421FA03F091400C43D8
:1013E000002174F1004550F1000051EB0C01244242
:1013F00030BC7FF47BAF70476146002076E7000089
:10140000C1F30A5340F2FE329B1A14DDD3F12003DC
:101410004FEAE17208DDC90241EA505141F0004053
:10142000D84080185040704703F2E13010B1D243E9
:1014300082F000407047002070470000C11768B17B
:101440004840401AB0FA80F29040D21CC907C2F559
:10145000846241EA025202EBD0214005704700004D
:1014600070B44FF0004591EA030F40F1A3836B4045
:10147000841A71EB030603D2001BB14112197341A8
:101480004FF4001C1CEB410F34BF7CEB430442E0E3
:101490000C0DA4EB1356352E4FDC45EAC323DB0AB3
:1014A00045EAC121C912B6F120050DDD63FA05F642
:1014B000EB4086EA0305124218BF45F00105C0184B
:1014C00051F100010CD213E062FA06F5F2405540EA
:1014D000F3415A40B340F3405A408018594107D372
:1014E00049085FEA30005FEA350528BF45F001058D
:1014F00001F58011420875F1004250F1000041EB06
:1015000004514E0016F5001F70BC38BF7047002014
:10151000090D090570471CEB410F10D252EA430632
:101520000BD0BCEB410F05D80C0DAB43661E342E1F
:10153000B6DD02E0AB438018594170BC704770BC07
:1015400070470000F0B540F2FF7581EA030C0CF023
:10155000004C15EA11541DBF15EA1357AC42AF42B7
:10156000E5E0BC41C1F31301C3F31303801A9941B1
:1015700043F4801304D2641E40004941801859414D
:10158000C90241EA5051B1FBF3F603FB1611A2FB6D
:101590000675D7EBC020A94102D2761E80185941AA
:1015A000C90241EA5051B1FBF3FE03FB1E11A2FB3D
:1015B0000E75D7EBC020A94103D2AEF1010E801801
:1015C0005941890241EA9051760546EA8E2EB1FBD7
:1015D000F3F603FB1611A2FB0675D7EB8020A94199
:1015E00002D2761E80185941C90241EA50514EEA92
:1015F000060EB1FBF3F603FB1611A2FB0675D7EB43
:10160000C020A94102D2761E80185941C90241EA80
:101610005051B1FBF3F703FB1711A2FB0735D3EBD6
:10162000C020A94167F100070CBF004247F0010745
:1016300066F3D5274FEA1E31B80814F5806412DD31
:10164000BD0775F1004250EB0E5051EB045111F5FE
:10165000801F5CBF41EA0C01F0BD4CF07F6141F09E
:10166000E0410020F0BDBD076D0840EA0E5041F496
:101670008011D4F10104B4F120060ADAC4F1200685
:101680000200E04001FA06F3E1401843B24015437E
:101690000EE0342C13DCC6F1200445EA40056D0849
:1016A00020FA06F2154321FA06F0A1400D4300216D
:1016B00075F1004250F1000051EB0C01F0BD00202B
:1016C0005FEA0C01F0BDCFB992185B41B3FA83F722
:1016D00004BFB2FA82F6BF190B3FB7F120062FBF45
:1016E00002FA06F3BB40C7F1200622FA06F638BF1D
:1016F0003343BA401CB1E419641E33E77F4231F032
:101700000041B1FA81F404BFB0FA80F6A4190B3C91
:10171000B4F120062FBF00FA06F1A140C4F1200663
:1017200020FA06F638BF3143A0403C1B1AE7AC4212
:101730001ABF05EA1357AF4212E050EA41061CBF38
:1017400052EA4306BFE750EA4107304661461CBFF4
:1017500041EA0551F0BD52EA430C08BFC143F0BD58
:1017600000204FF4001616EB410F98BF16EB430F05
:1017700008BF16EB410F24BFC14305E016EB430F32
:101780000CBF61464CEA0551F0BD0000400D491800
:1017900040EA81200CD2490DA1F58061491C40F03E
:1017A000004005DBD1F11F0154BFC840C01770478E
:1017B00000207047014648B1B0FA80F18840C91C4A
:1017C000C1F58461090501EBD02140057047000097
:1017D000B0B581EA030C0CF0004C40F2FF7515EA3D
:1017E00011541DBF15EA1357AC42AF4239E0E4195A
:1017F00023EA455343F48013C90241F0004141EA12
:10180000505EC7021100A7FB020200284FF0000043
:10181000EEFB01204FF00001E3FB072118BF42F06F
:101820000102401800214941E3FB0E01A4F5806448
:101830000F0302D252004041494154F101046CDDD2
:10184000470872F1004250F1000051EB0451A1F53C
:1018500080115CBF41EA0C01B0BD4CEA055100208B
:10186000B0BD05EA1357AC4214BFAF4241E050EAA5
:10187000410E1CBF52EA430E02E061460020B0BD9B
:1018800024423C441BD15FEA070EF6D0090302BF95
:1018900001460020AEF1140EB1FA81F7AEEB070459
:1018A00001FA07FE0C37C7F1200100FA07F7C8401C
:1018B0004EEA000E23EA455343F48013A2E733F0C7
:1018C0000043B3FA83F704BFB2FA82FE77440B3FBA
:1018D000E41BB7F1200E2FBF02FA0EF3BB40C7F195
:1018E000200E22FA0EFE38BF43EA0E03BA40641CF3
:1018F00082E750EA410E14BF52EA430E6FF0000136
:101900004FF4001717EB430F8ABF194617EB410F2F
:10191000B5E74CEA05510020B0BDD4F10104B4F1A3
:1019200020070FDAC4F12007520828BF42F0010255
:1019300010FA07F501FA07F7E1BF2A43E040384300
:10194000E1400FE0352C98DCC7F1200452EA400258
:1019500020FA07F218BF42F0010231FA07F0A14065
:101960000A43002172F1004250F1000051EB0C01DA
:10197000B0BD0000004870471C000020BBBBE1B1B7
:10198000B2F5803F80F07E80022A1ED98C46B1FBE2
:10199000F2F102FB11C31B0443EA1043B3FBF2FC58
:1019A00002FB1C3380B240EA0343B3FBF2F002FBBC
:1019B000103240EA0C4000237047022A05D98446C1
:1019C000B0FBF2F002FB10C270474AB105D100F043
:1019D000010249085FEA3000704700220023704787
:1019E00000F09EB90B0002000021002070479042D9
:1019F00071EB030CF6D3B3F5803F2FD2F0B5B3FAF9
:101A000083F7B1FA81F4A7F10F0E3D1B5340CEF1DD
:101A1000200602FA0EF2F3415340B5F10F0746D803
:101A20000F3C2C444140C4F12006A040F14141400C
:101A3000B1FBF3F603FB1611A2FB0645001BA941FF
:101A400002D2761E8018594180EA010221FA0EF373
:101A500062FA0EF200215A403046F0BD30B4B1FBBC
:101A6000F3FC03FB1C11A2FB0C45001BA94103D294
:101A7000ACF1010C8018594130BC02460B4660465F
:101A800000217047B2F1807F65D3F0B5B2FA82F7DA
:101A9000B1FA81F4C7F10F063D1B22FA06F307F1F4
:101AA000110EF24120355A40B5F10F07B8D9414027
:101AB000C4F12006A040F1414140B1FBF3FC03FB1F
:101AC0001C11A2FB0C45001BA94103D2BCF1010C67
:101AD000801859410F2F12D30F3FC90341EA5041DB
:101AE000B1FBF3F603FB1611A2FB0645D4EBC030A5
:101AF000A94102D2761E8018594146EACC3C07B370
:101B00004140C7F12006B840F1414140B1FBF3F636
:101B100003FB1611A2FB0645001BA94102D2761E4B
:101B20008018594180EA010221FA0EF3C7F120041E
:101B300062FA0EF20CFA07F05A402CFA04F1304324
:101B4000F0BD80EA010221FA0EF3002162FA0EF2E2
:101B500060465A40F0BD8C46B1FBF2F102FB11C366
:101B60001B0243EA1063B3FBF2FC02FB1C331B02B3
:101B70004CEA002043EA1063B3FBF2FC02FB1C3387
:101B80001B024CEA002043EA1063B3FBF2FC02FBA9
:101B90001C331B024CEA002043EA1063B3FBF2FC47
:101BA00002FB1C324CEA002000237047012000F0A9
:101BB000B9B80000841A71EB030604D26E40001B12
:101BC000B141121973414FF4001C1CEB410F34BF9B
:101BD0007CEB430683E00C0DA4EB1356362E00F38A
:101BE0007C80012E45EAC32341DC43EA525312BFF5
:101BF000D20292025B08240545EAC12141EA505114
:101C0000D2EBC020994125D407D1B0FA80F610FA62
:101C100006F162D00020203608E0B1FA81F6B1402A
:101C2000C6F1200220FA02F21143B0404FEAF474E8
:101C3000B4EB465434F001064FEA74040AD8D6F5E2
:101C40000016760D04F00044F04061FA06F25040B0
:101C5000F1404840C00A40EA415021F0004128BF0D
:101C60005FEA500550F1000044EBD12135E0DB0A7A
:101C700045EAC121C90AB6F120050EDD42EA024259
:101C8000120CC5F1200603FA06F6EB4042EA0605FF
:101C90006D42984161F100010DE062FA06F5F240F3
:101CA000554063FA06FC82EA0C02F3405A406D424A
:101CB000904161EB030111F4801F05D1641E6205A0
:101CC00002D06D004041494121F48011430875F173
:101CD000004350F1000041EB045170BC70471CEB15
:101CE000410F15D223F0004352EA43060BD04FEACE
:101CF0004C0CBCEB410F04D80C0D661E342EB7DD26
:101D0000EBE7801A994150EA410608BF0021E4E759
:101D100008BF1CEB430F28BF6FF00001DDE7000098
:101D20007047000080B5AFF30080024A1100182010
:101D3000ABBEFBE726000200F0B585B050260B9D38
:101D400025B986F3118800F011FAFEE70C9C24B93E
:101D500086F3118800F00AFAFEE754270097009FE7
:101D6000542F04D086F3118800F000FAFEE72563B3
:101D70000026022584F8515004AF0A9D0396029470
:101D80000197009500F034F8204600F06DF80498B3
:101D900005B0F0BD2DE9F8430646174684B08846E5
:101DA0009946B80000F08CFA05001CD0542000F0D1
:101DB00087FA040014D00020256384F851000390B2
:101DC00002940D980C99019000914B463A46414679
:101DD000304600F00DF8204600F046F8012004E0FF
:101DE000284600F0F6FA4FF0FF3005B0BDE8F0836A
:101DF0002DE9F0470A9E8146306B00EB8202101FEE
:101E0000C0084FEAC00A00228C5CB01880F8344049
:101E1000885C10B1521C102AF6D3089D002086F869
:101E20004300062D099C88BF062506F14407F5628C
:101E30003D6078609846301D00F029FB06F11800DF
:101E400000F025FB3661C5F10705B561766200201B
:101E5000B860387342464946504600F055FB306042
:101E600004B12660BDE8F0872DE9F04100F067F885
:101E7000DFF8B453DFF8C883E86C401CE86414262C
:101E8000A86A28BBAC62E86C012829D1002706FBB0
:101E900007F0404400F0EEFA7F1C072FF7D305F15E
:101EA000740000F0E7FA05F18807384600F0E2FA1E
:101EB000284600F0DFFA05F1140000F0DBFA05F126
:101EC000380000F0D7FA05F17400E8622F6307E0EC
:101ED000A86D28B9E06AA96ACA6A904228BFAC62B4
:101EE000A86E401CA86600F093F94643211D08EB3C
:101EF000060000F0CFFA00F082FBA86D30B100F0D0
:101F00003AF903D200F095F900F030F9BDE8F0811C
:101F100080B588B1DFF81023116F21B100F03CF8D3
:101F200000F024F9FEE7116F491C1167002100F051
:101F300089F900F03BF808B900F013F901BD044637
:101F400000F044BB80B586B000210591049103AA3E
:101F500004A905A800F08EFB0598049902900022C0
:101F6000009201910023039A0FF24C310FF21120DD
:101F7000FFF7E2FE70B100F00FF800F0F7F8DFF8BD
:101F800028034FF0FF31C1660122826500210165FF
:101F900000F0D8FA07B000BD502080F311887047D8
:101FA000DFF80403016F491C0167704770B5DFF863
:101FB0007862306F0024002520B900F043F800F06B
:101FC000D5F8FEE700F002FB306F401E3067306F3F
:101FD000002836D1F06CD8B933E0F068C46800F05E
:101FE00035F800F012F9E06A716DDFF8B8320122BD
:101FF00082401143716514225043211D184400F0A2
:1020000049FAE06AB16ACA6A904224BF0121316686
:1020100030680028E1D10CB100F0EAF8F46D3CB171
:1020200000F018F808B101203066641EF8D1F5659B
:10203000306E30B1DFF874124FF08050012500F09F
:1020400094F8ECE0502181F31188704704F11800F6
:1020500000F046BA2DE9F843DFF8CC71386F00265E
:1020600000284ED13C6D641C3C6510D1F86A0068B4
:1020700020B1FFF7E7FF00F079F8FEE7F86A396B67
:10208000F9623863786E401C786600F0B1F8F86E3B
:10209000DFF8109284424FF0140828D31AE0281D6C
:1020A00000F01EFAA86A18B105F1180000F018FA3D
:1020B000E86A796D012282401143796508FB00F0DE
:1020C000291D484400F0E6F9E86AB96ACA6A9042F4
:1020D00028BF0126F86A006830B1F86AC168CD6887
:1020E00068688442DBD201E04FF0FF30F866B86ADE
:1020F000C06A08FB00F059F80010022904D3012639
:1021000002E0F86D401CF865386E00B101268DE0E4
:10211000DFF81421106F10B10121116670471066AD
:102120001421506DB0FA80F3C3F11F034B43DFF865
:102130007411C85838B9502181F31188BFF34F8FFB
:10214000BFF36F8FFEE7C81800F1080341684968C4
:102150004160994204BF496841604068C16891622A
:102160007047DFF848114FF080500860BFF34F8F81
:10217000BFF36F8F7047A86AC16AE06A81427047F7
:1021800070B5DFF8BC40DFF8205111E000F01EFA16
:10219000286AC668301D00F0A3F9E86C401EE864A8
:1021A000686B401E686300F02AFA304600F009F8B8
:1021B000686B0028EAD121680229F9D3FFF7D1FF23
:1021C000F6E710B5044694F8510040B9206B00F0D2
:1021D00000F92046BDE8104000F0FBB810BD012812
:1021E000F7D00228FAD0FFF7D7FEFFF7BFFFFEE7D0
:1021F0000D49C86A006810B94FF0FF3203E0C86AA1
:10220000C268D0684268CA667047201D00F068B98D
:102210000122E06A696D824011436965704700F0F0
:10222000EEF9284670BD0000C00E00203046BDE823
:10223000F2831E4A4FF08051116070470000000089
:102240005C0F0020F8B5184D2F6D0C46A96A0646A4
:10225000081D00F045F930B9A86A696DC06A01220D
:1022600082409143696516F1010F05D124B1A86A36
:10227000011D05F138001BE0A86AF6194660BE4250
:10228000A86A05D2011D286BBDE8F44000F00FB923
:10229000011DE86A00F00BF9E86E864238BFEE6671
:1022A000F1BD00005C0F0020C00E002004ED00E036
:1022B000BDE8F44000F0EEB849444C450000000091
:1022C0002DE9F8430446FFF76BFE694FB8684FF0FD
:1022D0000009002508BB07F1180307F1180113F0E6
:1022E000070F4FF440600A4605D0CA1DD208D2003D
:1022F000C2F54060081880180838C008C0003A606D
:102300007D60B86045600560831A53601060506856
:102310003861F8604FF0004078614FF050087869FC
:10232000044246D1002C44D0083414F0070F1FBFDC
:1023300004F1080004F00704041B14F0070F02D096
:1023400000F040F8FEE7A4B3F868A04231D33E683D
:10235000394601E0314606467068A04202D2306834
:102360000028F7D1B868864223D00A683068086030
:1023700002F108097268121B112A0CD3311911F0ED
:10238000070002D000F01EF8FEE7301D0251746015
:10239000084600F048F87168F8683A69401AF86031
:1023A000904238BF3861786901437160356009F047
:1023B0000705FFF7FBFD15B100F004F8FEE74846FE
:1023C000BDE8F28388F31188BFF34F8FBFF36F8F9F
:1023D0007047002800D1704738B5A0F10804244D9B
:1023E00061686A695023114202D100F015F8FEE7D6
:1023F000206810B100F010F8FEE791436160FFF72C
:10240000CFFDE96860684118E960204600F00BF8EC
:10241000BDE83140FFF7CABD83F31188BFF34F8F8A
:10242000BFF36F8F704730B511490A4600E01A4676
:1024300013688342FBD35368D418844203D14068A5
:10244000C3185360104643681468C518A54208D1E4
:1024500089688C4204D06168CB184360246800E02E
:102460000C460460824218BF106030BD00000000BE
:10247000540000204FF0FF3200F1080182604160FB
:10248000C16000F108020261002101607047002173
:102490000161704710B542684A6093688B60946828
:1024A0006160916008610168491C016010BD30B530
:1024B0000A6812F1010F08BF036907D000F1080391
:1024C00000E023465C682568AA42FAD25A684A604E
:1024D00091608B60596008610168491C016030BDE2
:1024E0004368016982689A60836842685A604A68F2
:1024F000824204BF83684B60002202610868401E6C
:102500000860086870470000490810B54900A0F14C
:102510000C034FF0807459609C600FF20D0119603C
:1025200040F8202D203810BD44494A68502012F14F
:10253000010F80F31188BFF34F8FBFF36F8F00D06F
:10254000FEE7FEE71CB53E490A780192FF230B70B7
:1025500007220C788DF800409DF80000374C00F001
:1025600050002070A26006E0401EA0609DF80000B0
:1025700040008DF80000A0689DF800201306F3D4F9
:10258000C0F10702042A02D000F018F8FEE70002AA
:1025900000F4E060A060019808702A48016841F4E6
:1025A00070010160026842F07042026000F04EF873
:1025B0000020606000F09BF8002016BD502080F3E2
:1025C0001188BFF34F8FBFF36F8F7047502080F398
:1025D0001188BFF34F8FBFF36F8F18494A68521CA1
:1025E000012A4A600AD118490A68130606D080F306
:1025F0001188BFF34F8FBFF36F8FFEE770470F490E
:10260000486838B9502080F31188BFF34F8FBFF36B
:102610006F8FFEE7401E486008BF80F31188704747
:1026200080B5FFF7CBFFFFF715FD18B106494FF056
:1026300080500860002282F3118801BD0000002054
:1026400000E400E020ED00E004ED00E00748084B66
:102650000021016081604FF47A721968B1FBF2F2D7
:10266000521E426007210160704700BF10E000E089
:1026700018000020034B036003F154000860802120
:10268000116070476C0C0020EFF30980BFF36F8F6F
:102690001D4B1A6820E9F00F106008B54FF050008C
:1026A00080F31188BFF34F8FBFF36F8FFFF730FDBB
:1026B0004FF0000080F31188BDE8084019680868F1
:1026C000B0E8F00F80F30988BFF36F8F70470E4BAF
:1026D00019680868B0E8F00F80F30988BFF36F8FBE
:1026E0004FF0000080F311884EF00D0E7047074840
:1026F0000068006880F3088862B661B6BFF34F8F48
:10270000BFF36F8F00DF0000E80E002008ED00E04F
:10271000F8B5040025D004F13C05697821B9002002
:102720002870204600F0B4FA2421697020680268FD
:102730005208520002602068016841F400410160C3
:102740002068026822F40042026000F000FD0146A9
:102750006068DFF88C22904205D2DFF88832994217
:1027600005D20120F2BDDFF880028142F9D3206852
:10277000DFF878324668B1FBF3F3B60943EA861610
:1027800046602668376A6068904206D34FF49670B8
:1027900043434FF47A70B3FBF0F35B1CBF0943EA89
:1027A00087133362491E2368DE696768974206D241
:1027B0007F0000F043F8042913D2042111E0A0683F
:1027C00020B907EB470700F039F805E01920474327
:1027D00000F034F841F4804108050CBF012141F4B8
:1027E0000041DFF8180206400E43DE6122681368DC
:1027F000E169206A23F0C0030B430343136022689E
:10280000DFF8FC01936821690340E0680B43034350
:1028100093602168CA68A3696069120A034343EAA6
:102820000222CA602068016841F0010101600020B5
:102830006860202169702063A870F2BDB1FBF7F1D8
:10284000491CC1F30B0170472DE9F84304460E46BD
:102850001546994600F0C4FC00F0DEF806D1CDF82C
:10286000008000F0C5F800F0D4F8002879D138785D
:10287000012876D000F07FF821207870102100F038
:10288000A6F800F0D7F8E16A082918BF012904D09A
:1028900081421CBF206B122801D100F0C3F8CDF893
:1028A00000800022089D2B4600F0B1F80028206827
:1028B00006D00168CA054DD54FF40070786049E034
:1028C0002169B1F5804F08BF06F0FE060FD0F1096F
:1028D00001F0060141F0F001016143462A46DFF8AC
:1028E000241100F05BF8002834D12068F6B20661AC
:1028F00043462A46DFF8101100F050F8002829D18D
:10290000009021684A69009289690091009A208D9F
:10291000002821D04246294600F097F8A8B900F0D7
:102920004AF8401E208521684A69530706D580B2BF
:1029300020B1606A02780A6100F033F84246294605
:10294000204600F040F90028E1D07868042801D141
:1029500000F074F8012005E000F070F800F004F8D1
:1029600000E00220BDE8F283202078700021B970D9
:102970000020387070470121397020680268D10743
:1029800003D4026842F0010202602068016821F469
:1029900000610160704733464A464146204600F0D8
:1029A0008DB8606A411C6162608D411E6185208D19
:1029B000411E21857047606A226801781161606A52
:1029C000411C6162608D411E6185208D7047B97028
:1029D000002078606562A4F82A90608D704700003E
:1029E000A186010080841E0000093D0040420F00C6
:1029F00019230122DFF83810704700000030FFFF74
:102A0000007CFFFF080001000200010000224FF0DF
:102A10000111204600F01EB804F13C07804678788A
:102A2000202870472068016841F480710160704778
:102A30000200100020850648E062704720680168A7
:102A400041F4007101607047414620469BE0000060
:102A50000000FFFF2DE9F8430F46089C064690460C
:102A600099463D0C3068E9B201290CBF4069806984
:102A700000F06FF80CBF0120002040451CD119F177
:102A8000010FEFD000F0ACFB001B814502D3B9F180
:102A9000000FE7D13068E9B201290CBF40698069B5
:102AA00000F057F80CBF012000204045DAD100F0BB
:102AB0005CF80120BDE8F2830020FBE72DE9F0413E
:102AC0000F460646144698463D0CE8B2012837D119
:102AD00030684169394089B2B8B2814237D0306834
:102AE00041694A0510D500F039F83268506100217B
:102AF00006F13C003163202242708170426842F04E
:102B000004024260017014E014F1010FDDD000F006
:102B100067FBA0EB0800844201D3002CD5D1E9B2B9
:102B20003068012908D1406900F013F8D0D000F0D6
:102B30001CF80120BDE8F081806900F00AF8F6D1A8
:102B400030688169394089B2B8B28142C7D100206A
:102B5000F0E7384080B2B9B288427047016841F46A
:102B6000007101606FF480607047002030632021A5
:102B700006F13C00002241708270416841F0200162
:102B800041600270704770B505460C4616462868CD
:102B90004169080615D4284600F042F878B914F1C6
:102BA000010FF4D000F01CFB801B844201D3002CE9
:102BB000EDD1286841690806E9D400F024F8012025
:102BC00070BD002070BD70B505460C4616462868DD
:102BD0004169480715D4284600F022F878B914F165
:102BE000010FF4D000F0FCFA801B844201D3002CCA
:102BF000EDD1286841694807E9D400F004F80120C4
:102C000070BD002070BD002105F13C002963202229
:102C100042708170426842F0200242600170704749
:102C200001684A6953050FD56FF480624A6100213B
:102C300001633C30202242708170426842F00402FD
:102C400042600170012070470020704780B526481F
:102C5000016841F001010160026802F00102009286
:102C60000099426842F0805242600022406800F0C1
:102C7000805000900F2100986FF0010000F0D0FA12
:102C80001A48016821F0E06141F00071016001BD66
:102C900018B585B004461022002101A800F0F2FA10
:102CA0002168134881421CD10F4C216841F0080172
:102CB0002160C021206800F00800009012220098D6
:102CC0000C48019102920321049101A900F0E4FA59
:102CD000606840F400106060606800F400100090CC
:102CE000009806B010BD000018100240040001401A
:102CF00000540040000C01402DE9F843040016D0B8
:102D00002078DFF89864C10713D5706800F00C00D4
:102D1000042807D0706800F00C00082841D17068C2
:102D2000C1033ED53068810303D56068002800F0F8
:102D300064812078DFF87474810719D5706810F009
:102D40000C0F07D0706800F00C00082861D1706883
:102D5000C1035ED43068810703D52069012840F0A3
:102D60004C813168606921F0F80141EAC0013160AD
:102D70002178080740F18180A069DFF83414002829
:102D800000F0A68001220A6000F02AFA0546706A67
:102D9000810763D400F024FA401B0228F7D90320EE
:102DA0002EE16068B0F5803F04D1306840F4803097
:102DB000306014E008B930680AE0B0F5A02F306840
:102DC00006D140F480203060316841F4803105E064
:102DD00020F480303060316821F4802131606068F7
:102DE00058B100F0FDF9054630688103A1D400F028
:102DF000F7F9401B6528F7D3D1E700F0F1F9054654
:102E00003068810395D500F0EBF9401B6528F7D3B6
:102E1000C5E72069A8B10121396000F0E1F9054654
:102E20003068810705D400F0DBF9401B0228F7D990
:102E3000B5E73068616920F0F80040EAC100306011
:102E400096E7386000F0CCF90546316888078FD5E1
:102E500000F0C6F9401B0228F7D9A0E7DFF84003CD
:102E60000168C9084FF47A72B1FBF2F2009200BF18
:102E70000098411E00280091F9D1207841076ED5B5
:102E8000F0690025C10009D4F06940F08050F0617C
:102E90000125F06900F0805000900098DFF814835D
:102EA000D8F80000C10520D4D8F8000040F48070A4
:102EB000C8F8000000F094F98146D8F80000C10578
:102EC00013D400F08DF9A0EB09006528F5D366E76F
:102ED000086000F085F90546706A8107CDD500F0DD
:102EE0007FF9401B0228F7D959E7E068012808D08C
:102EF00008B9306A09E00528306A06D140F00400BC
:102F00003062306A40F0010005E040084000306265
:102F1000306A20F00400306241F28938E06860B124
:102F200000F05EF98146306A810713D400F058F949
:102F3000A0EB09004045F6D331E700F051F9814696
:102F4000306A810706D500F04BF9A0EB0900404537
:102F5000F6D324E71DB1F06920F08050F061E069FC
:102F600000284CD0716801F00C01082938D00228E3
:102F70002AD100F047F805463068810105D500F0F8
:102F80002FF9401B0228F7D909E7206AB0F5803FE6
:102F900005D17168A06821F4003101437160726845
:102FA000206A616A22F4741202430A4372600120AB
:102FB00000F029F804463068810120D400F010F9AF
:102FC000001B0228F7D9EAE600F01CF80446306836
:102FD000810114D500F004F9001B0228F7D9DEE6C0
:102FE00001280AD07068226A00F48031914202BF41
:102FF00000F47010616A884201D0012000E00020D6
:10300000BDE8F2830020386600F0EAB82DE9F0410F
:10301000040088464ED0684E00F077F802D200F0E7
:103020006FF847D120685D4D810712D5400703D561
:10303000696841F4E06169602078010703D5686838
:1030400040F4605068606968A06821F0F0010143B5
:1030500069602178C80725D56068012802D12968F0
:103060008A0303E00228296802D18A0102D421E000
:103070008A071FD56968890840EA8100686000F006
:10308000AFF807466868616800F00C00B0EB810F8C
:1030900008D000F0A5F8C01B41F289318842F1D375
:1030A00003202BE0306800F00700804504D200F0D8
:1030B00027F801D0012021E02078410705D56A6872
:1030C000E06822F4E06202436A602178080706D5CE
:1030D0006968206921F4605141EAC001696000F02B
:1030E00019F86A6835492E4BC2F30312895CC8404F
:1030F00018602D48006800F0B5F90020BDE8F081A7
:103100003168C90848EAC1013160306800F0070041
:10311000404570472A4923480A6802F00C03082BEF
:1031200000D0704710B500BF28A4C2F38343D20378
:10313000E35C08D50968584328A3C1F340415A5CB1
:10314000B0FBF2F010BD18461E49484310BD1448AC
:103150001B4A006813681C49C3F30222FFE7895C1D
:10316000C840704710B50F220260154A136803F07B
:1031700003034360146804F0F0048460136803F4EC
:10318000E063C3601268D20802F4E06202610A4898
:10319000026802F007020A6010BD00000010024041
:1031A0001800002000127A001400002000004242A3
:1031B000800442420070004000200240983D000818
:1031C0000410024000093D00DC3D00080203040534
:1031D000060708090A0B0C0D0E0F10100102000063
:1031E00001484068704700BF0C0000200901020040
:1031F00002D41F48815470471E4B02F00F021A443C
:1032000002F8041C70471C4B19684FF6FF020002BD
:10321000114000F4E0600843184908431860704703
:1032200070B5154B1C68C4F302230124C3F10705D4
:10323000052D2EBF0F2504FA05F56D1E1E1D072E48
:1032400034BF0023DB1E2940994004FA03F3BDE894
:1032500070405B1E1A401143C8E7010007D40122E9
:1032600000F01F01064B8A40400943F820207047B8
:1032700000E400E018ED00E00CED00E00000FA05CD
:1032800000E100E010B5044610460A46014620461B
:1032900000F036F9204610BD2DE9F8474FF0000E3A
:1032A0000024634A634BDFF890814FF00F09824698
:1032B0000CE017683840106006E055604D68ED037B
:1032C000F7D51068074317600EF1010E0F6837FA43
:1032D0000EF000F09F80012000FA0EF63740B74252
:1032E000F2D1486838B301281AD002281DD003282B
:1032F0002ED0112816D012281AD0504DA8421CBF2B
:103300004F4DA84217D04F4DA8421CBF4E4DA8426A
:1033100011D04E4DA8421CBF4D4DA8420BD018E015
:10332000CC6816E0CC68241D13E0CC68083410E0AB
:10333000CC680C340DE0886808B9042409E0012841
:1033400019BF0824CAF814600824CAF8106000E005
:103350000024B7F5807F03D250464FEA8E0C05E07B
:10336000AEF108050AF104004FEA850C056809FA78
:103370000CF6B54304FA0CF6354305604868C00006
:10338000A2D5D8F8000040F00100C8F80000D8F835
:10339000005005F0010500954FEA8E0500984FEAB0
:1033A0009E0053F8206005F00C0C09FA0CF526EA93
:1033B0000505284EB24508BF00260ED0264EB24560
:1033C00008BF012609D0254EB24508BF022604D009
:1033D000234EB2450CBF0326042606FA0CF63543ED
:1033E00043F82050F8434D68ED0295684CBF3D43CB
:1033F000054095604D68AD02D5684CBF3D43054022
:10340000D5604D685668AD034CBF47EA060500EA33
:10341000060552E7BDE8F18702B90904016170476A
:10342000C26801EA0203914341EA03410161704726
:103430000004014008000140181002400000111073
:1034400000001210000021100000221000003110B6
:103450000000321000080140000C01400010014043
:103460000014014078B50446204887B0016841F057
:103470000201016001A9006800F00200009002A8AA
:10348000009AFFF76FFE059810B9FFF760FE02E0A3
:10349000FFF75DFE4000164D1649174B2960B0FB43
:1034A000F3F0401E40F2E73268600021EA602961D3
:1034B000A960A961284600F02DF8060012D128461F
:1034C00000F035F806000DD11D20FFF7C6FE102CC8
:1034D00007D2002221461D20FFF7A2FE0748046004
:1034E00000E00126304608B070BD00001C1002400C
:1034F000641000200004004040420F00140000202F
:103500004018491C1CBFB1F1010100F8012DF9D18F
:103510007047000038B5040001D1012032BD00F031
:103520004BF818B900F0F2F800F02CF92DE090F803
:103530003D10012901D001207047022180F83D1083
:103540000168CA6842F00102CA600068DFF86010D2
:10355000884218BFB0F1804F07D0DFF8581088427A
:103560001CBFDFF85C20904209D1816801F007019F
:10357000062908D0016841F00101016003E00268FA
:1035800042F0010202600020704702206870211D95
:10359000206800F0BFF80120A872A870E8702871B8
:1035A0006871A871E871287268726870002032BD75
:1035B000002C01400004004004F13C05687870478D
:1035C0000008004010B50446206801698A0715D537
:1035D000C1688A0712D56FF00201016101222277CA
:1035E000806910F0030F204602D000F0CCF803E011
:1035F00000F0CAF800F087F8002020772068016901
:103600004A0715D5C1684A0712D56FF00401016158
:1036100002222277806910F4407F204602D000F019
:10362000B2F803E000F0B0F800F06DF80020207769
:10363000206801690A0715D5C1680A0712D56FF01D
:103640000801016104222277C06910F0030F2046AF
:1036500002D000F098F803E000F096F800F053F87C
:103660000020207720680169CA0615D5C168CA06FE
:1036700012D56FF01001016108222277C06910F4A1
:10368000407F204602D000F07EF803E000F07CF896
:1036900000F039F80020207720680169CA0708D5B2
:1036A000C168CA0705D56FF001010161204600F02D
:1036B00068F9206801690A0608D5C1680A0605D5B7
:1036C0006FF080010161204600F0A0F920680169D7
:1036D0004A0608D5C1684A0605D56FF04001016168
:1036E000204600F094F9206801698A060AD5C1686D
:1036F0008A0607D56FF0200101612046BDE8104021
:1037000000F086B910BD204600F083B90021297071
:103710002046704770B5174E0368174C174DB042DE
:1037200018BFB0F1804F03D0A84218BFA04209D102
:103730004A6823F070031343B0421CBFB0F1804FBE
:10374000A84201D0A04203D1CA6823F440731343B6
:103750004A6923F0800313430360B0428B68C3625D
:103760000A68826202D10969054A11600123436136
:1037700070BD0000002C0140000800400004004023
:10378000302C0140704770477047000018B595B065
:1037900000F040F900F06FF801A80021002200239A
:1037A000002480E81E007B487B4C016841F020012A
:1037B0000160026802F0200200920099026842F063
:1037C00008020260036803F008030093009902688E
:1037D00042F0040202600022006800F00400009041
:1037E0004FF4E04100982046FFF716FE4FF4E04109
:1037F000019101220292002103910222049201A967
:103800002046FFF749FD6549654C664861602060C8
:1038100000224FF48041A260E26021616261A261F6
:10382000E26122622046FEF773FF08B100F0BEF8A5
:103830000DF1380060A11C22FDF7D0FC00210EA87C
:1038400000F005F960651C220DF11C0061A1FDF777
:10385000C5FC002107A800F0FAF8A0651C22684604
:1038600063A1FDF7BBFC0021684600F0F0F8E065BD
:1038700000F0E8F8FEE700B58FB0282105A800F0B9
:103880001DF91421684600F019F94FF48031002227
:10389000069107920D9101200590099002224FF4A4
:1038A000E0110C920E9105A8FFF726FA08B172B646
:1038B000FEE7022101910F204FF480610090002269
:1038C00003910292049202216846FFF79FFB08B120
:1038D00072B6FEE70FB000BD38B5314C0225009539
:1038E00010234E22214604F1640000F01BF904F17C
:1038F000640000F08AF90022002104F1640000F065
:1039000054F900BF2AA104F1640000F06EF900220E
:10391000062104F1640000F048F904F1700104F19B
:10392000640000F062F94FF4805100F013F84FF496
:10393000FA7000F0BBF8F6E780B51948012100F0F5
:103940001AF84FF4005100F005F84FF47A7000F0C7
:10395000ADF8F6E71048FFF763BD80B510480221C7
:1039600000F009F84FF48041FFF7F4FF40F2DC501B
:1039700000F09CF8F6E7016605A1026E703000F0D9
:103980004DB900680849884208BF00F067B9704720
:103990002564000018100240000C0140A0860100C0
:1039A000E80F0020005400400004004072B6FEE71B
:1039B0004C4544203A200000C43D0008D938000896
:1039C0000000000000000000800000000000000077
:1039D00000000000CC3D000839390008000000005C
:1039E0000000000080000000000000000000000057
:1039F000D43D00085B390008000000000000000012
:103A000080000000000000000000000070477047C8
:103A10007047704780B50748016841F010010160A8
:103A20000320FFF7F0FB0F20FFF71CFDFFF70EF957
:103A3000002002BD0020024001460020842918BF5A
:103A4000C81C704780B5FEF77DFA002002BD38B56E
:103A5000044684B0606900281CBFA06900280D4698
:103A600012D0B4F90800FFF7E7FFA16902912B46D5
:103A7000626901920090226921686068FEF75CF932
:103A80000390039805B030BDB4F90800FFF7D4FFE8
:103A900003A9019100902B4622692168606892B2C7
:103AA000FEF778F90128ECD00020EBE780B500B9EB
:103AB0000120FEF72DFA002002BD0000002200F0D8
:103AC000D5B800F0EDB87CB504460D01E07A01F000
:103AD000F00605F0F00518B146F0080645F00805B7
:103AE000012A04BF46F0010645F0010546F0040135
:103AF0008DF804100120FFF7E4FF45F004018DF874
:103B000006108DF805600120FFF7DBFF4FF47A7097
:103B10008DF80750009004232179206801AAFEF750
:103B200093FE73BD10B5044602982160A071062172
:103B30002820A0722271E1710C2020721421082229
:103B400063716172E2723220FFF7BBFF0022332102
:103B500000F059F80022332100F055F80520FFF756
:103B6000B0FF0022322100F04EF80520FFF7A9FF38
:103B70000022202100F047F80520FFF7A2FFE1799D
:103B800000F040F8217A00F03DF8617A00F03AF850
:103B9000A17A00F037F80022012100F034F8204625
:103BA000BDE81040002202218DE710B54479802342
:103BB000A14228BF611E8479A24228BF621EC9B2F9
:103BC000D4B25CB1012C08BF403107D0022C08BF31
:103BD000143103D0D2B2032A02D1543141F0800310
:103BE000BDE810400022D9B26DE738B504460D4655
:103BF00004E015F8011B012200F005F828780028E0
:103C0000F7D131BD002220465DE780B500220121B9
:103C1000FFF759FFBDE80240052052E70CB430B56C
:103C200083B00A4606A90291044600250194009536
:103C300002AB01A9084878441E30FCF757FA019AF4
:103C4000157000284EBF04460198041B204603B09F
:103C500030BC5DF80CFB00BFABD4FFFF02494A68E3
:103C6000087882184A6070470C00002000B500BF39
:103C7000130096469446103928BFA0E80C50FAD895
:103C80005FEA417C28BF0CC048BF40F8042BC9073D
:103C900028BF20F8022B48BF00F8012B00BD000010
:103CA00038B50446FFF79CFA14F1010F054602D01F
:103CB000044908780419FFF793FA401BA042FAD38D
:103CC00031BD00BF0C00002030B501688468421887
:103CD000416802EB5103C90703D54C4401E0491C7C
:103CE00005D19A420AD012F9011B12F8015B002992
:103CF00004F8015BF3D4491EF7D5F2E70C3030BD70
:103D000010B5074979441831064C7C44163404E058
:103D10000A68081D114488470146A142F8D110BD28
:103D200008000000240000008BD3FFFF5C1000009F
:103D3000540000200000000091FFFFFF5801000028
:103D4000820000000000002000F00DF8002801D0E3
:103D5000FFF7D6FFAFF300800020AFF30080FFF73E
:103D600015FD00F002F80120704700F001B80000D6
:103D700007463846FDF7D6FFFBE70000FEE7FEE703
:103D8000FEE7FEE7FEE770470148FFF71BBC0000B7
:103D900064100020704700000000000000000000D8
:103DA000010203040607080901488047014800474B
:103DB000953D0008B93D0008AFF30080AFF30080E7
:103DC000FFF7C2FF5461736B303100005461736BB5
:103DD000303200005461736B30330000000000008B
:103DE00001020304686A6C747A4C0000FFF7FEBF9E
:103DF000FFF7FEBFFFF7FEBFFFF7FEBFFFF7FEBFF7
:103E0000FFF7FEBFFFF7FEBFFFF7FEBFFFF7FEBFE6
:103E1000FFF7FEBFFFF7FEBFFFF7FEBFFFF7FEBFD6
:103E2000FFF7FEBFFFF7FEBFFFF7FEBFFFF7FEBFC6
:103E3000FFF7FEBFFFF7FEBFFFF7FEBFFFF7FEBFB6
:103E4000FFF7FEBFFFF7FEBFFFF7FEBFFFF7FEBFA6
:103E5000FFF7FEBFFFF7FEBFFFF7FEBFFFF7FEBF96
:103E6000FFF7FEBFFFF7FEBFFFF7FEBFFFF7FEBF86
:103E7000FFF7FEBFFFF7FEBFFFF7FEBFFFF7FEBF76
:103E8000FFF7FEBFFFF7FEBFFFF7FEBFFFF7FEBF66
:103E9000FFF7FEBFFC00FCAAFC000001F9000010C7
:103EA000FC001E24F40092120008921200089212E4
:103EB0000008921200089212000892120008921252
:103EC0000008F8FF0B8211000892120008921200FD
:053ED00008FAFFFE00EE
:0400000508003DB9F9
:00000001FF
